{
  "_format": "hh-sol-artifact-1",
  "contractName": "DepositContract",
  "sourceName": "contracts/DepositContract.sol",
  "abi": [
    {
      "anonymous": false,
      "inputs": [
        {
          "indexed": true,
          "internalType": "address",
          "name": "from",
          "type": "address"
        },
        {
          "indexed": true,
          "internalType": "address",
          "name": "to",
          "type": "address"
        },
        {
          "indexed": false,
          "internalType": "uint256",
          "name": "amount",
          "type": "uint256"
        }
      ],
      "name": "Deposited",
      "type": "event"
    },
    {
      "inputs": [
        {
          "internalType": "address",
          "name": "recepient",
          "type": "address"
        },
        {
          "internalType": "uint256",
          "name": "amount",
          "type": "uint256"
        }
      ],
      "name": "deposit",
      "outputs": [],
      "stateMutability": "payable",
      "type": "function"
    }
  ],
  "bytecode": "0x608060405234801561001057600080fd5b506102a0806100206000396000f3fe60806040526004361061001e5760003560e01c806347e7ef2414610023575b600080fd5b61003d60048036038101906100389190610183565b61003f565b005b803414610081576040517f08c379a000000000000000000000000000000000000000000000000000000000815260040161007890610220565b60405180910390fd5b8173ffffffffffffffffffffffffffffffffffffffff163373ffffffffffffffffffffffffffffffffffffffff167f8752a472e571a816aea92eec8dae9baf628e840f4929fbcc2d155e6233ff68a7836040516100de919061024f565b60405180910390a35050565b600080fd5b600073ffffffffffffffffffffffffffffffffffffffff82169050919050565b600061011a826100ef565b9050919050565b61012a8161010f565b811461013557600080fd5b50565b60008135905061014781610121565b92915050565b6000819050919050565b6101608161014d565b811461016b57600080fd5b50565b60008135905061017d81610157565b92915050565b6000806040838503121561019a576101996100ea565b5b60006101a885828601610138565b92505060206101b98582860161016e565b9150509250929050565b600082825260208201905092915050565b7f496e636f727265637420504f4c2073656e740000000000000000000000000000600082015250565b600061020a6012836101c3565b9150610215826101d4565b602082019050919050565b60006020820190508181036000830152610239816101fd565b9050919050565b6102498161014d565b82525050565b60006020820190506102646000830184610240565b9291505056fea2646970667358221220a2360752f413e9dccf7fe46b8d398fbda17a38c39751ef897e1545a55255ad7464736f6c63430008130033",
  "linkReferences": {},
  "deployedLinkReferences": {}
}